:020000040800F2
:1000000000280020492200089D2100089F210008A7
:10001000A1210008A3210008A5210008000000007C
:10002000000000000000000000000000A721000800
:10003000A921000800000000AB210008AD21000844
:1000400091220008912200089122000891220008C4
:1000500091220008912200089122000891220008B4
:1000600091220008912200089122000891220008A4
:100070009122000891220008912200089122000894
:100080009122000891220008912200089122000884
:100090009122000891220008912200089122000874
:1000A0009122000891220008912200089122000864
:1000B000B1210008912200080000000091220008F0
:1000C00091220008000000000000000091220008BA
:1000D00000000000BD21000891220008000000007F
:1000E00091220008912200089122000800000000DF
:1000F0000000000000000000000000000000000000
:0C01000000000000000000005FF808F1A3
:10010C0008B5064B1A783AB9054A1AB10548AFF347
:10011C000080024B01221A7008BD00BF7C00002039
:10012C00000000005C2F000808B5034B1BB103490D
:10013C000348AFF3008008BD0000000080000020E1
:10014C005C2F000870470000F7B5002504460E46EA
:10015C00019500F01BFB236807469A68D10508D56A
:10016C000120A36A84F8245043F02003A36203B057
:10017C00F0BD5A68D20503D4DB6A13F4700F3DD07E
:10018C003D4B02201D6800F001FE23683B4A1969B3
:10019C00B5FBF0F511423A4A51D1D86839490842B9
:1001AC004DD1196911425BD1DA68374B1A420CBF39
:1001BC00142329235D43019BAB4223D2721C04D030
:1001CC00002E53D1019BAB420AD3019B0133019307
:1001DC00F1E7751C13D066B923681B6898070DD41A
:1001EC00A36A032043F00403A362002384F82430A1
:1001FC00BDE700F0CBFAC01BB042EDD82268136803
:10020C009907E6D56FF0120322681360A36A43F4D2
:10021C000073A362936803F46023B3F5602F0CD1D1
:10022C00237B53B9A36A23F48073A362A36ADB0410
:10023C0003D4A36A43F00103A362002097E7196972
:10024C00114203D1D968104A11420BD019690F4AD7
:10025C00114209D1DB6813420CBF5423FC23A9E7DC
:10026C002923A7E75423A5E7FC23A3E700F08EFA84
:10027C00C01BB042A6D8A8E7000000202449922455
:10028C009224491224499200922449004992240054
:10029C000368D86C70470000002373B5019390F885
:1002AC0024300546012B74D0012380F824304B6890
:1002BC000268062B0C6825D81F26013B506B03EBFC
:1002CC0083039E4020EA060004FA03F303435363BE
:1002DC00092C886832D90726A4F10A03D16803EBEC
:1002EC0043039E4021EA060100FA03F30B43D3605B
:1002FC00A4F11003012B2CD90020002385F8243005
:10030C0002B070BD0C2B0CD81F26073B106B03EBF7
:10031C0083039E4020EA060004FA03F303431363AD
:10032C00D6E71F260D3BD06A03EB83039E4020EAE1
:10033C00060004FA03F30343D362C9E707211369E8
:10034C0004EB4404A14023EA0103A04003431361DE
:10035C00D2E7114B9A4216D193681B02CCD4936806
:10036C00102C43F400039360C6D10C4B0C4A1B6851
:10037C00B3FBF2F30A2253430193019B002BBBD036
:10038C00019B013BF8E7AB6A012043F02003AB6211
:10039C00B3E70220B4E700BF0024014000000020B6
:1003AC0040420F00002337B50193036804469A6856
:1003BC00D20702D5002003B030BD9A6842F001028A
:1003CC009A60144B144A1B68B3FBF2F30193019B24
:1003DC00E3B900F0DBF9054623689B68DB07E9D439
:1003EC0000F0D4F9401B0228F6D923689B6813F05F
:1003FC000103F1D1A26A012042F01002A262E26A6A
:10040C0084F8243042F00102E262D4E7019B013B04
:10041C00DCE700BF0000002040420F0010B590F850
:10042C0024300446012B54D0012380F82430FFF7EC
:10043C00B9FF002849D1A36A274A23F4407323F05B
:10044C00010343F48073A3622368934204D12349CC
:10045C004A6812F4702F2ED1A26A22F48012A26282
:10046C005A68520541BFA26A22F4405242F48052AB
:10047C00A262A26A12F480521CBFE26A22F0060247
:10048C00E262002284F824206FF002021A609A685B
:10049C0002F46022B2F5602F13D10F4A934205D1BA
:1004AC00A2F58062526812F4702F0AD19A6842F455
:1004BC00A0029A6010BDA26A42F48012A2624A683D
:1004CC00CFE79A6842F48012F3E7002384F82430D3
:1004DC00F0E70220EEE700BF0028014000240140B5
:1004EC0038B5036804469A68D10701D4002038BD9A
:1004FC009A6822F001029A6000F048F905462368D8
:10050C009B68DB07F2D500F041F9401B0228F6D9B5
:10051C0023689B68DA07F2D5A36A012043F0100325
:10052C00A362E36A43F00103E362E0E7F8B5044633
:10053C0000286DD0836A23B9C36280F8243001F09F
:10054C00EBFC2046FFF7CCFFA36A13F0100361D13C
:10055C0000285FD1A26A616822F4885222F002025C
:10056C0042F00202E569A668A262227B2943B6F535
:10057C00807F41EA420136D0771E7D427D412D02BB
:10058C00277D012F06D182BBA269013A45EA42328E
:10059C0042F400652268B6F5807F576827F46947F6
:1005AC0045EA0705556097681D4D07EA050545EABC
:1005BC000105956001D0012E02D12369013B1B0579
:1005CC00D56A25F470052B43D3629268154B134002
:1005DC00994213D10023E362A36A23F0030343F08F
:1005EC000103A362F8BD3546CAE7A26A42F02002B5
:1005FC00A262E26A42F00102E262CBE7A36A23F054
:10060C00120343F01003A362E36A43F00103E362B5
:10061C000120E7E7A36A43F01003A362F8E700BFE9
:10062C00FDF7E1FFFE0E1FFF002373B5019390F859
:10063C0024300446012B62D0012380F82430FFF7CC
:10064C004FFF2046FFF7AEFE054600282FD1A36AC8
:10065C00022023F4885323F0020343F00203A36225
:10066C00284B1E6800F092FBB6FBF0F67600019664
:10067C00019B03BB2268936843F00803936000F06E
:10068C0085F8064623689A68110718D49A6842F0D0
:10069C0004029A6000F07AF8064623689B685B07B0
:1006AC0023D4A36A23F0030343F00103A3620023C2
:1006BC0084F8243016E0019B013B0193D8E700F04D
:1006CC0065F8801B0A28DDD923689B681807D9D5E3
:1006DC00A36A012523F0120343F01003A362002345
:1006EC0084F82430284602B070BD00F04FF8801B0F
:1006FC000A28D2D923689B685A07CED5E8E7022589
:10070C00F0E700BF0000002038B50E4B05461A7804
:10071C004FF47A73B3FBF2F30B4A1068B0FBF3F0AF
:10072C0000F01EFD044658B90F2D09D80246294683
:10073C004FF0FF3000F0D8FC2046044B1D6038BD54
:10074C000120FCE70400002000000020080000202D
:10075C00074A08B51368032043F01003136000F038
:10076C00B1FC0F20FFF7D0FF01F028FD002008BDE1
:10077C0000200240034A044B11681B780B441360A1
:10078C00704700BF9800002004000020014B18683F
:10079C00704700BF980000202DE9F341054638B39F
:1007AC000368DB0710D42B689F075ED42B681907EE
:1007BC0000F195802B685A0700F1C180EB69002B82
:1007CC0040F02E81002029E0914C636803F00C036B
:1007DC00042B07D0636803F00C03082B0AD1636861
:1007EC00DE0307D523689C03DDD56B68002BDAD1BB
:1007FC00012013E06B68B3F5803F12D1236843F4FA
:10080C0080332360FFF7C2FF064623689803CAD4DF
:10081C00FFF7BCFF801B6428F7D9032002B0BDE8AA
:10082C00F0819BB9236823F480332360236823F47D
:10083C0080232360FFF7AAFF064623689903B2D5ED
:10084C00FFF7A4FF801B6428F7D9E6E7B3F5A02FC8
:10085C00236803D143F480232360CFE723F4803350
:10086C002360236823F48023CBE7694C636813F07F
:10087C000C0F07D0636803F00C03082B10D16368CE
:10088C00DA030DD423689B0702D52B69012BAFD15A
:10089C0023686A6923F0F80343EAC203236085E7FF
:1008AC002A695C4B6AB101221A60FFF76FFF06469A
:1008BC0023689F07ECD4FFF769FF801B0228F7D948
:1008CC00ABE71A60FFF762FF0646236898077FF5CF
:1008DC006DAFFFF75BFF801B0228F6D99DE7AA6975
:1008EC004B4C4C4BE2B10122C3F88024FFF74EFF76
:1008FC000646636A9B070DD54FF4FA52464B1B68AC
:10090C00B3FBF2F3019300BF019B5A1E0192002B23
:10091C00F9D14FE7FFF73AFF801B0228E9D97CE7B2
:10092C00C3F88024FFF732FF0646636A9F077FF502
:10093C0041AFFFF72BFF801B0228F6D96DE7344C33
:10094C00E369D80024D40127E36943F08053E361C1
:10095C00E36903F080530093009B304E3368D90554
:10096C0018D5EB68012B26D1236A43F001032362CF
:10097C00FFF70CFF41F288368046236A9B0740D56F
:10098C00002F3FF41BAFE36923F08053E36115E7BD
:10099C000027E2E7336843F480733360FFF7F6FE19
:1009AC0080463368DA05DCD4FFF7F0FEA0EB0800D4
:1009BC006428F6D931E7B3B9236A41F2883623F0BB
:1009CC0001032362236A23F004032362FFF7DEFE94
:1009DC008046236A9807D3D5FFF7D8FEA0EB080012
:1009EC00B042F6D919E7052B236A03D143F004036F
:1009FC002362B9E723F001032362236A23F0040383
:100A0C00B5E7FFF7C3FEA0EB0800B042B5D904E789
:100A1C000010024000004242000000200070004024
:100A2C002A4C626802F00C02082A3ED00022022BEB
:100A3C00274B1A662CD1FFF7A9FE064623689901AD
:100A4C0020D42B6AB3F5803F05D16268A96822F4E3
:100A5C0000320A436260696A62680B4322F47412C2
:100A6C001343012263601A4B1A66FFF78FFE05468B
:100A7C0023689A013FF5A6AEFFF788FE401B0228BB
:100A8C00F6D9CAE6FFF782FE801B0228D6D9C4E647
:100A9C00FFF77CFE054623689B017FF593AEFFF7BD
:100AAC0075FE401B0228F6D9B7E6012B3FF4A0AE29
:100ABC0060682B6A00F480329A427FF499AE6B6ABC
:100ACC0000F47010C01A18BF0120A7E600100240F5
:100ADC00000042420D4A536803F00C01082912D160
:100AEC000B48C3F38341DB03405C09D55368094AC7
:100AFC00C3F340435043084AD35CB0FBF3F0704758
:100B0C00064B584370470348704700BF0010024023
:100B1C008E2F000800127A008C2F000800093D006F
:100B2C002DE9F04104460D4610B90120BDE8F081D5
:100B3C00444A136803F007038B4228D321688E07BD
:100B4C0030D4CA0743D43F4A136803F00703AB42BF
:100B5C0065D822683C4D12F0040F6CD1130706D5F2
:100B6C006B68226923F4605343EAC2036B60FFF79E
:100B7C00B1FF6B68354AC3F30313D35CD840344BD5
:100B8C001860344B1868FFF7BFFD0020CEE71368E0
:100B9C0023F007030B431360136803F007038B4226
:100BAC00C3D1CBE7284B11F0040F1EBF5A6842F497
:100BBC00E0625A60080742BF5A6842F460525A60B9
:100BCC005A68A06822F0F00202435A60B9E76268E2
:100BDC001D4E012A33681AD113F4003FA5D0736857
:100BEC0041F2883823F0030313437360FFF7CEFD03
:100BFC0007467368626803F00C03B3EB820FA2D054
:100C0C00FFF7C4FDC01B4045F3D903208EE7022A31
:100C1C0002D113F0007FE1E713F0020FDEE7136857
:100C2C0023F007032B431360136803F00703AB4255
:100C3C007FF47BAF8DE76B68E16823F4E0630B43D3
:100C4C006B608BE700200240001002407C2F0008F4
:100C5C000000002008000020044B054A5B68C3F329
:100C6C000223D35C034A1068D8407047001002403E
:100C7C00742F000800000020044B054A5B68C3F386
:100C8C00C223D35C034A1068D8407047001002405E
:100C9C00742F00080000002003682DE9F34105467D
:100CAC00D80720D5364CE369D9002AD40126E3694C
:100CBC0043F08053E361E36903F080530193019B9C
:100CCC00304F3B68DA051ED5236A13F440732ED1DE
:100CDC00236A6A6823F44073134323621EB1E369E9
:100CEC0023F08053E3612A68910706D52449A8684C
:100CFC004B6823F4404303434B60D30638D40020A5
:100D0C0012E00026DCE73B6843F480733B60FFF79E
:100D1C003DFD80463B68DB05D6D4FFF737FDA0EBE5
:100D2C0008006428F6D9032002B0BDE8F0816A6897
:100D3C0002F440729A42CBD00120134A236AC2F8C3
:100D4C004004002023F44071DF07C2F84004216204
:100D5C00BED5FFF71BFD41F288378046236A980702
:100D6C00B6D4FFF713FDA0EB0800B842F6D9DAE7CA
:100D7C00034AE968536823F480030B435360BEE7CE
:100D8C00001002400070004000004242022808B5EA
:100D9C0045D0102803D0012822D000202AE0244B73
:100DAC005A68186810F0807024D0C2F3834121482F
:100DBC00D20348BF5A68405C41BF1F49C2F340424E
:100DCC00895C1E4A5B684CBFB2FBF1F21C4A5B02A9
:100DDC0002FB00F00ED403234000B0FBF3F009E05B
:100DEC00134B186A00F44072B2F5807F03D1C0F344
:100DFC004000C00308BDB2F5007F07D149F6404062
:100E0C005B6A13F0020F08BF0020F3E7B2F5407FD6
:100E1C00C3D11B684FF2244013F4003FF3E7FFF7F4
:100E2C002BFF034B5B68C3F3813301335B00D4E7C7
:100E3C0000100240A02F00089E2F000800127A001C
:100E4C0000093D002DE9F74F00224FF0010816462E
:100E5C004FF00F0EDFF878C15E4B0D6835FA06F4D3
:100E6C0002D103B0BDE8F08F08FA06F705EA0704D3
:100E7C0037EA050575D14D68032D07D8013D022DC4
:100E8C0000F28280DFE805F091969C00122D00F0B4
:100E9C00948068D8112D00F08A80FF2C93BF0746F0
:100EAC00A6F10809071D4FEA860988BF4FEA890990
:100EBC003D680EFA09FA25EA0A0502FA09F945EA2B
:100ECC0009053D60D1F8049019F0805F49D0DCF839
:100EDC00185026F0030745F00105CCF81850DCF843
:100EEC00185007F1804705F00105019507F580378B
:100EFC0006F0030A019D4FEA8A0ABD680EFA0AFB46
:100F0C0025EA0B0B344DA8425ED005F58065A8424E
:100F1C005CD005F58065A84214BF0325022505FAAF
:100F2C000AF545EA0B05BD609D6819F4801F14BFD6
:100F3C002543A5439D60DD6819F4001F14BF2543AC
:100F4C00A543DD605D6819F4003F14BF2543A5433C
:100F5C005D601D6819F4803F14BF2C4325EA04041E
:100F6C001C60013679E7DFF874904D450CD015D82C
:100F7C00A9F580194D4507D009F570294D4503D0C9
:100F8C00A9F580194D4588D18A68DAB1012A08BFC4
:100F9C0007614FF0080218BF47617EE7DFF8409009
:100FAC004D45F1D009F58039ECE7CA6875E7CA6898
:100FBC00043272E7CA6808326FE7CA680C326CE711
:100FCC0000226AE7042268E70025A8E70125A6E7C6
:100FDC0000100240000401400008014000002210F3
:100FEC00000031108368194214BF012000207047A3
:100FFC000AB1016170470904FBE790F82120034610
:10100C00022A06D0042282630120002283F82020C9
:10101C0070470268C06B116821F00E0111601168F5
:10102C0021F00101116001211A6C01FA02F24260F7
:10103C00002083F82110E8E708B590F82130022B46
:10104C0003D004238363012008BD03681A6822F0CF
:10105C000E021A601A6822F001021A60174A9342B3
:10106C001FD0143293421ED0143293421DD014322E
:10107C0093421DD0143293421DD01432934214BFAC
:10108C004FF080734FF480130D4A5360012380F8A6
:10109C002130002380F82030436B03B198470020A7
:1010AC00D2E70123F0E71023EEE74FF48073EBE770
:1010BC004FF48053E8E74FF48033E5E70800024033
:1010CC000000024007490302CA6803F4E06322F4FB
:1010DC00E0621204120C134343F0BF6343F4003379
:1010EC00CB60704700ED00E0144B30B5DB684FF07F
:1010FC00FF34C3F30223DD1E042D86BF0423002519
:10110C00C3F1070304FA03F321EA0301AC400028FE
:10111C0022EA040201FA05F141EA0201ACBF00F136
:10112C006040074A4FEA0113ABBF00F5614000F085
:10113C000F0080F80033135430BD00BF00ED00E009
:10114C0014ED00E0002807DB01234109034A00F0FD
:10115C001F00834042F82130704700BF00E100E0DF
:10116C000138B0F1807F0BD24FF0E023F021054A1B
:10117C00586182F823100020072298611A61704789
:10118C000120704700ED00E0036A026A70B522F09E
:10119C0001020262446882690D6822F073022A43DC
:1011AC008D6823F002032B430A4DA8420BD1CD6866
:1011BC0023F008032B4324F44074D1E9055635433E
:1011CC0023F004032C43446082614A684263036247
:1011DC0070BD00BF002C0140036A026A70B522F496
:1011EC00807202624468C2690D6822F073022A435D
:1011FC008D6823F4007343EA05230B4DA8420DD1EF
:10120C00CD6823F4006343EA052324F44054D1E968
:10121C000556354323F4806344EA05144460C261E7
:10122C004A68C263036270BD002C0140036A026A03
:10123C0030B522F4805202624468C2690D6822F40F
:10124C00E64242EA05228D6823F4005343EA053353
:10125C00064DA84202BF4D6924F4804444EA85142B
:10126C004460C2614A680264036230BD002C0140D4
:10127C00704770477047704770477047036870B588
:10128C00DD681E690446B1070DD5AA070BD56FF0B2
:10129C0002021A61012202779B699B0769D0FFF752
:1012AC00EAFF00232377710710D56A070ED56FF07C
:1012BC000402236820461A61022222779B6913F4E8
:1012CC00407F5CD0FFF7D7FF0023237733070FD580
:1012DC0028070DD56FF00802236820461A610422F6
:1012EC002277DB69990750D0FFF7C5FF00232377DE
:1012FC00F20610D5EB060ED56FF0100223682046CF
:10130C001A6108222277DB6913F4407F43D0FFF780
:10131C00B2FF00232377F00708D5E90706D56FF055
:10132C000102236820461A61FFF7A3FF320608D595
:10133C002B0606D56FF08002236820461A6100F058
:10134C0064FA700608D5690606D56FF0400223686A
:10135C0020461A61FFF791FFB20622D5AB0620D5C5
:10136C006FF0200223682046BDE870401A6100F03F
:10137C004BBAFFF77FFF2046FFF77EFF91E7FFF7A1
:10138C0079FF2046FFF778FF9EE7FFF773FF2046B3
:10139C00FFF772FFAAE7FFF76DFF2046FFF76CFF20
:1013AC00B7E770BD194A10B59042036805D0B0F18B
:1013BC00804F02D0164CA04210D14C6823F0700321
:1013CC00904243EA040305D0B0F1804F02D0104A9A
:1013DC00904203D1CA6823F4407313434A6923F043
:1013EC008003134303608B68C3620B688362074BF3
:1013FC00984204BF0B690363012343610369DB0754
:10140C0042BF036923F00103036110BD002C0140AE
:10141C000004004010B5044630B390F83D3003F0A2
:10142C00FF021BB980F83C2000F0A4FD02232068C9
:10143C0084F83D30211DFFF7B5FF0123002084F80F
:10144C00463084F83E3084F83F3084F8403084F8DD
:10145C00413084F8423084F8433084F8443084F8C6
:10146C00453084F83D3010BD0120FCE710B5044632
:10147C0030B390F83D3003F0FF021BB980F83C20EC
:10148C00FFF7F6FE0223206884F83D30211DFFF79C
:10149C0089FF0123002084F8463084F83E3084F81C
:1014AC003F3084F8403084F8413084F8423084F87E
:1014BC00433084F8443084F8453084F83D3010BD16
:1014CC000120FCE7036A026A70B522F01002026286
:1014DC00446882690D6822F4E64242EA05228D686E
:1014EC0023F0200343EA05130B4DA8420DD1CD6820
:1014FC0023F0800343EA051324F44064D1E9055634
:10150C00354323F0400344EA8504446082614A6811
:10151C008263036270BD00BF002C014038B590F8A7
:10152C003C300446012B4DD0082A3BD007D8C2B121
:10153C00042A27D00120002384F83C3038BD0C2A23
:10154C00F8D10068FFF772FEC3690A6943F40063BF
:10155C00C361C36923F48063C361C36943EA022393
:10156C002EE00068FFF710FE83690A6943F0080358
:10157C008361836923F0040383618369134383616B
:10158C000020D8E70068FFF79DFF83690A6943F4E0
:10159C0000638361836923F480638361836943EA15
:1015AC000223ECE70068FFF717FEC3690A6943F0F2
:1015BC000803C361C36923F00403C361C369134304
:1015CC00C361DDE70220B9E710B584680A4324F44F
:1015DC007F4442EA03222243826010BD38B590F862
:1015EC003C300446012B4FF0020051D084F83D00F2
:1015FC002068836823F47F4323F0770383600B68B0
:10160C00602B4FD02CD8402B64D010D8202B07D077
:10161C0004D833F0100203D0012033E0302BFBD17F
:10162C00826822F07002134343F0070328E0502B2A
:10163C00F2D14A68CD68016A036A21F00A0123F0ED
:10164C000103036283690A4323F0F00343EA0513A1
:10165C0083610262836823F0700343F057030FE049
:10166C00B3F5805F0DD0B3F5005F12D0702BD3D1E2
:10167C00CB68D1E90121FFF7A7FF836843F077031B
:10168C0083600020012384F83D30002384F83C3033
:10169C0038BDCB68D1E90121FFF796FF836843F48D
:1016AC008043EDE7036A026A4D6822F01002C968B4
:1016BC000262826923F0A00322F4704243EA05130C
:1016CC0042EA013282610362836823F0700343F0C3
:1016DC006703D5E74A68CD68016A036A21F00A01FD
:1016EC0023F00103036283690A4323F0F00343EA06
:1016FC00051383610262836823F0700343F0470390
:10170C00BEE710B50124036A01F01F018C4023EAE7
:10171C0004030362036A8A401A43026210BD00008C
:10172C0008B529B990F83E30012B1DD001202FE0CF
:10173C00042907D190F83F30012BF7D1022380F810
:10174C003F3014E0082907D190F84030012BEDD13F
:10175C00022380F840300AE090F84130012BE5D1AB
:10176C00022380F8413002E0022380F83E3000680A
:10177C000122FFF7C6FF0C4B98420AD1436C43F48D
:10178C0000434364836803F00703062B07D1002052
:10179C0008BDB0F1804FF5D0044B9842F2D00368ED
:1017AC0043F001030360F2E7002C01400004004009
:1017BC00FFF7B6BF30B590F83C200346012A4FF036
:1017CC0002001ED01A6883F83D0054680D6824F09E
:1017DC0070042C43906854600A4CA24206D0B2F1BB
:1017EC00804F03D0A4F59434A24204D1496820F070
:1017FC008000084390600122002083F83D2083F88C
:10180C003C0030BD002C014070477047026802F16B
:10181C000C0353E8003F23F490730C3242E8003180
:10182C0002680029F2D102F1140353E8003F23F0BF
:10183C00010302F1140C4CE800310029F3D1036BC5
:10184C00012B0BD102F10C0353E8003F23F01003E2
:10185C0002F10C0C4CE800310029F3D1202380F864
:10186C00423000230363704710B504460368C16817
:10187C001A6922F440520A431A6182680069D968D5
:10188C000243606921F4B05121F00C0102430A4378
:10189C00DA605A69A16922F440720A435A610E4A0D
:1018AC00934215D1FFF7E8F9192358436368642272
:1018BC009B00B0FBF3F0B0FBF2F102FB11031B0138
:1018CC003233B3FBF2F3246803EB0113A36010BDB6
:1018DC00FFF7C2F9E8E700BF00380140F7B504464E
:1018EC000D4617461E462268136835EA030301D1DC
:1018FC00002021E0711CF7D0FEF748FFC01B864288
:10190C001CD3DEB12068C3685A07ECD5802DEAD011
:10191C00402DE8D003681B07E5D500250195036829
:10192C000193436820460193019BFFF76FFF082347
:10193C000120636484F8405003B0F0BD0320FBE742
:10194C0010B5044648B390F8413003F0FF021BB9C0
:10195C0080F8402000F0D8FB2423226884F8413022
:10196C00D368204623F40053D360FFF77DFF236830
:10197C0000201A6922F490421A615A6922F02A0254
:10198C005A61DA6842F40052DA602023606484F809
:10199C00413084F84230606310BD0120FCE72DE932
:1019AC00F843984690F841300446202B0E461746D3
:1019BC003ED100293ED0002A3CD02123002545648D
:1019CC0080F84130FEF7E2FEA3688146B3F5805FF4
:1019DC00A784E78403D123690BB935461E46E38CF3
:1019EC009BB253B943464A4640212046FFF776FF47
:1019FC00202350B984F841300AE043464A468021FE
:101A0C002046FFF76BFF28B12023032084F84130D8
:101A1C00BDE8F883226846B935F8023BC3F30803E6
:101A2C005360E38C013BE384D9E716F8013BF7E7FD
:101A3C000220EDE70120EBE770477047704708B5CF
:101A4C000023406AC385C384FFF7F8FF08BD7047C5
:101A5C0090F8423007B5222B42D181680268B1F56B
:101A6C00805F836A3ED1016900293ED15268C2F37E
:101A7C00080223F8022B8362C38D013B9BB2C38502
:101A8C00002B2DD10268D16821F02001D160D168E2
:101A9C0021F48071D160516921F001015161202242
:101AAC0080F842204363026B012A026826D103634B
:101ABC0002F10C0353E8003F23F0100302F10C0C6D
:101ACC004CE800310029F3D11368DB0605D50191F0
:101ADC001368019353680193019B818DFFF7B7FF46
:101AEC0003B000BD31B9016921B952681A70836A1B
:101AFC000133C0E7526802F07F02F7E7FFF79DFF62
:101B0C00EEE70000036873B51A6804461607D96837
:101B1C005D6908D1960668D58D0666D502B0BDE81C
:101B2C007040FFF795BF05F0010001F49075054377
:101B3C005BD0D60705D5CD0542BF636C43F00103DE
:101B4C006364530704D518B1636C43F002036364F8
:101B5C00960704D518B1636C43F00403636415074E
:101B6C0007D501F0200303431EBF636C43F0080349
:101B7C006364636C002B32D0920604D58B0602D5BD
:101B8C002046FFF765FF266820467369626C03F0F8
:101B9C00400302F0080253EA020522D0FFF736FE9A
:101BAC0073695E0618D5226802F1140353E8003FEE
:101BBC0023F04003143242E800310029F3D1E06BEA
:101BCC0050B1734B4363FFF737FA40B1E06B436B93
:101BDC0002B0BDE8704018472046FFF72FFF02B057
:101BEC0070BDFFF72BFF6564F9E7206B012840F00F
:101BFC009380D50640F19080C80640F18D8000227C
:101C0C0001921A6801925A680192019A5A69520615
:101C1C004DD5E16B0A68526892B2002ADFD0A08DD4
:101C2C009042DCD9E2858A69202A36D003F10C0275
:101C3C0052E8002F22F4807203F10C0040E80021DE
:101C4C000029F3D103F1140252E8002F22F0010213
:101C5C0003F1140040E800210029F3D103F1140230
:101C6C0052E8002F22F0400203F1140040E800215A
:101C7C000029F3D1202284F84220216303F10C02C5
:101C8C0052E8002F22F0100203F10C0040E8002172
:101C9C000029F3D1E06BFFF7B0F902236363E38D06
:101CAC00A18DC91A89B22046FFF7D1FE97E7E08DC6
:101CBC00E28D92B2002A92D0A18D091A89B2002924
:101CCC008DD003F10C0252E8002F22F4907203F134
:101CDC000C0545E800200028F3D103F1140252E86A
:101CEC00002F22F0010203F1140545E80020002822
:101CFC00F3D1202284F84220206303F10C0252E835
:101D0C00002F22F0100203F10C0545E800200028FA
:101D1C00F3D102236363C6E7160628D50D0626D534
:101D2C0094F84120212A7FF45AAFA168226AB1F5B8
:101D3C00805F17D12169A9B932F8021BC1F30801E0
:101D4C0059602262E28C013A92B2E284002A7FF45A
:101D5C0046AFDA6822F08002DA60DA6842F04002BC
:101D6C00DA603CE7511C216212785A60EAE75006AF
:101D7C007FF535AF4A067FF532AFDA68204622F0A0
:101D8C004002DA60202384F84130FFF755FE26E745
:101D9C004B1A000830B595B0202200210BA800F09A
:101DAC003BFC1422102500210DEB020000F034FC4A
:101DBC002A46002101A800F02FFC01230224CDE9C2
:101DCC000E354FF460130AA80A9411941393FEF77E
:101DDC00E3FC08B172B6FEE70F23CDE905344FF4EE
:101DEC0080630790CDE90830214605A8FEF798FEE0
:101DFC0008B172B6FEE74FF4004301A801940393B7
:101E0C00FEF74AFF08B172B6FEE715B030BD08B553
:101E1C00FEF79EFCFFF7BEFF00F00EF800F054F842
:101E2C0000F0FCF800F054F900F02DFA00F032FA52
:101E3C00FCE772B6FEE70000102230B589B00DEB5E
:101E4C000200002100F0E8FB1C4B4FF4E0719A6992
:101E5C001B4842F020029A619A69012402F0200288
:101E6C000192019A9A69002542F004029A619A69DA
:101E7C0002F004020292029A9A6942F008029A61F4
:101E8C009B69012203F008030393039BFFF7B0F84F
:101E9C004FF4E073CDE90434022304A90848CDE9DA
:101EAC000653FEF7CFFF4FF44053064804A9CDE983
:101EBC0004350694FEF7C6FF09B030BD0010024091
:101ECC0000080140000C01401FB51149114A0023C4
:101EDC0001240A604FF460220846CDE901330393D4
:101EEC008B600C730B75CA614B600C61FEF71EFBAB
:101EFC0008B1FFF79EFF0523054801A9CDE9014470
:101F0C000393FEF7C9F908B1FFF793FF04B010BDB6
:101F1C009C0000200024014010B5044686B010221D
:101F2C00002102A800F078FB2268104B9A421BD1CA
:101F3C0003F56C439A690E4842F400729A619A69EF
:101F4C0002A902F400720092009A9A6942F004020B
:101F5C009A619B69022203F004030193019B032302
:101F6C00CDE90223FEF76EFF06B010BD0024014040
:101F7C0000080140036807B5B3F1804F15D103F594
:101F8C000433DA691C2042F00102DA610022DB69B9
:101F9C00114603F001030093009BFFF7A5F81C20EA
:101FAC0003B05DF804EBFFF7CDB8074A934209D1B3
:101FBC00064BDA6942F00202DA61DB6903F00203D4
:101FCC000193019B03B000BD0004004000100240CF
:101FDC0010B5044686B01022002102A800F01CFBAC
:101FEC0022680C4B9A4213D103F503339A690A48C1
:101FFC0042F008029A619B69032203F008030193E3
:10200C00019B022302A9CDE902230593FEF71AFFD7
:10201C0006B010BD00040040000C014010B58EB09D
:10202C001022002103A800F0F7FA00241C222146FC
:10203C000DEB0200CDE9014400F0EEFA224A234BED
:10204C00104613603F23C2E901346323C2E9033411
:10205C0080239361FFF7DEF908B1FFF7EAFE4FF436
:10206C008053194803A90393FFF7B8FA08B1FFF797
:10207C00E0FE1548FFF7FAF908B1FFF7DAFE002485
:10208C00114801A9CDE90144FFF794FB08B1FFF712
:10209C00D0FE602308220C4807A9CDE90734099427
:1020AC000B94FFF73BFA08B1FFF7C3FE0C2206486E
:1020BC0007A9FFF733FA08B1FFF7BBFE0248FFF799
:1020CC0087FF0EB010BD00BFCC0000200004004004
:1020DC0008B50B490B4B4FF4E1320B600023C1E9FF
:1020EC0001230C220846C1E90333C1E90523CB6166
:1020FC00FFF726FC18B1BDE80840FFF79ABE08BDF3
:10210C005C0100200038014010B5044686B0102256
:10211C00002102A800F080FA22681B4B9A4230D1B1
:10212C0003F558439A69194842F480429A619A69B6
:10213C0002A902F480420092009A9A69002442F0AB
:10214C0004029A619B694FF4007203F0040301933B
:10215C00019B0223CDE9022303230593FEF772FEB4
:10216C004FF48063094802A9CDE902340494FEF7C8
:10217C0069FE252022462146FEF7B6FF2520FEF7F4
:10218C00E1FF06B010BD00BF00380140000801405F
:10219C00FEE7FEE7FEE7FEE7FEE770477047704795
:1021AC00FEF7E8BA0148FFF769B800BF1401002038
:1021BC000148FFF7A7BC00BF5C0100200E4B82B0AA
:1021CC009A6942F001029A619A6902F00102009246
:1021DC00009ADA6942F08052DA61DB69074A03F04F
:1021EC0080530193019B536823F0E06343F0007329
:1021FC00536002B0704700BF001002400000014065
:10220C000A4A10B513680BB9094B136009490A4CFB
:10221C001844091B884207D900F006FA0C23036006
:10222C004FF0FF33184610BD1060FBE7A4010020EF
:10223C00080300200028002000040000FDF782FFA6
:10224C000B480C490C4A002302E0D458C450043308
:10225C00C4188C42F9D3094A094C002301E01360DD
:10226C000432A242FBD300F0E5F9FFF7D0FD704732
:10227C00000000207C000020783000087C0000204A
:10228C0008030020FEE708B500F094F8BDE808400C
:10229C0000F044B910B5FEF779FA0B4A04461368FE
:1022AC00C31A132B02D9106000F0AAF8074A13685E
:1022BC00E31AB3F57A7F05D320461460BDE81040CD
:1022CC0000F02EB910BD00BFAC010020A801002009
:1022DC00F8B5FEF75BFA022507460026074CA188E5
:1022EC002068FEF77FFE012DA071E071A7602673B8
:1022FC0004F1100400D1F8BD0125F0E70C0000201A
:10230C0070B5064602250E4CA1882068FEF76AFEC1
:10231C00A3798342E3791CBFA071A660834207D0E6
:10232C00A368F31A1D2B03D9E07108B90123237399
:10233C00012D04F1100400D170BD0125E4E700BFAC
:10234C000C00002001289FBF0022044B03EB00135C
:10235C00187B94BF1A730020704700BF0C0000203C
:10236C00064A138943B1917831B91A460B46044990
:10237C000968CA630B6470470022F8E7B4010020B7
:10238C00CC0000208842034609D2421D92B29142F1
:10239C00084628BF1046934288BF0846704707D9A5
:1023AC00431F421A9BB2052A8CBF18460846704739
:1023BC007047000008B5FFF78BFF00230C4A0D484F
:1023CC00138053809380D38013810B4A1360FEF7E4
:1023DC002BF90848FEF722F808210848FFF7E8F91E
:1023EC000C210648FFF7E4F9BDE80840FFF7B8BF39
:1023FC00B40100209C000020B0010020CC00002083
:10240C0070B50546FFF77CFF0020FFF79BFF394CAA
:10241C0018B1237883F0010323700120FFF792FF9A
:10242C0020B16378002B29D101236370012132483C
:10243C00FDF78AFE20BB3048FDF72AFF80B240F63C
:10244C00FF722E4BA0801B68D96ADB6A89B24143AC
:10245C00B1FBF2F19BB289B2994228BF194623789D
:10246C00E1807BB16678A278B61A18BF0126E278B3
:10247C00032A3BD8DFE802F0091227320023D4E705
:10248C00A088DCE719461E46F1E7002323810EB134
:10249C006378A37051B10123E37007E020894EB13A
:1024AC0002230021E370FFF76DFF2081BDE870402F
:1024BC00FFF756BFFFF766FF014389B22081002961
:1024CC00F4D1E670F2E720890021FFF75BFF208151
:1024DC000028EBD10A4B1D600323DDE7084A126884
:1024EC00AD1A312DE2D96278A270D5E70023E370E2
:1024FC002381DBE7B40100209C000020CC000020ED
:10250C00B001002030B1044B1A6802605A681B8974
:10251C0042600381704700BFB40100207047000087
:10252C0030B5B5B0044609A8FFF7ECFF9DF82510AF
:10253C001A4A1B481A4D002908BF10469DF8261050
:10254C009DF82430002918BF2A469DF82710CDE9A4
:10255C000102032996BF134D134955F82110BDF8FC
:10256C002C5000930695BDF82A5023460595BDF8CE
:10257C0028500E4ACDE903150CA8A02100F01AF83A
:10258C00002808DD9F2828BF9F20642382B20CA955
:10259C000748FFF704FA35B030BD00BFB02F000874
:1025AC00B82F000860300008C02F0008C82F0008A2
:1025BC005C0100200CB430B5154B0C1E1D689DB091
:1025CC0008DA8B234FF0FF302B601DB0BDE8304094
:1025DC0002B070474FF000031B9318BF0123E31A9E
:1025EC00049307930B4B029006900593284621AB5E
:1025FC00209A02A9019300F0A3F8431CBCBF8B23C3
:10260C002B60002CE1D00022029B1A70DDE700BF8A
:10261C002C0000200802FFFF03460244934200D125
:10262C00704703F8011BF9E7014B1868704700BFAE
:10263C002C00002070B500260C4C0D4B1D1BB6EB6E
:10264C00A50F09D1002600F083FC0A4C0A4B1D1B78
:10265C00B6EBA50F05D170BD54F8043B9847013675
:10266C00EDE754F8043B98470136F1E77030000869
:10267C0070300008703000087430000870477047E4
:10268C002DE9F0471F468E688246BE420C469046A6
:10269C00334653D8B1F90C0010F4906F2BD0656908
:1026AC002368096905EB4505A3EB010905EBD57515
:1026BC007B1C6D104B44AB422A4684BF1D462A46F8
:1026CC00430527D51146504600F054F9064658B339
:1026DC004A46216900F0DCFBA38923F4906343F0A4
:1026EC008003A38126614E4426603B463E466561CD
:1026FC00A5EB0905A5601F463A464146206800F047
:10270C008FFB0020A3689B1BA36023683B442360C2
:10271C00BDE8F087504600F055FB06460028E1D195
:10272C005046216900F0C2FB0C23CAF80030A38983
:10273C004FF0FF3043F04003A381E9E73E46DBE76F
:10274C002DE9F0471F468B8906461B060D4614469D
:10275C009CB010D50B6973B9402100F00BF92860BF
:10276C00286130B90C2333604FF0FF301CB0BDE84A
:10277C00F08740236B610023099320238DF82930C7
:10278C0030234FF001080397644F8DF82A3023460D
:10279C001A7899461AB1252A03F10103F8D1B9EB3D
:1027AC00040A0BD05346224629463046FFF768FFF1
:1027BC00013000F0A380099A5244099299F8003034
:1027CC00002B00F09B8000224FF0FF33CDE9053247
:1027DC0009F10109049207928DF853201A924C4684
:1027EC00052214F8011B4D4800F044FB049AD0B9A3
:1027FC00D00644BF20238DF85330110744BF2B2340
:10280C008DF8533099F800302A2B13D04B4600200A
:10281C004FF00A0C07991A781C46303A092A4AD903
:10282C00A8B1079113E0C01B08FA00F01043A146B1
:10283C000490D4E7039B191D1B680391002BBBBFAD
:10284C005B4242F0020207930793B8BF04922378CD
:10285C002E2B0AD163782A2B32D1039B02341A1DFA
:10286C001B68039243EAE3730593DFF8B4900322E9
:10287C004846217800F0FEFA38B14022049BA0EBC8
:10288C000900824013430134049321780622254821
:10289C008DF8281000F0EEFA002835D0224818BB2D
:1028AC00039B073323F0070308330393099B01347D
:1028BC00034409936BE701200CFB01210133AAE7C8
:1028CC0000234FF00A0C18460593611C0A780C463D
:1028DC00303A092A03D9002BC7D00590C5E701234C
:1028EC000CFB00200131F1E703AB00932A46304684
:1028FC000E4B04A9AFF30080421CD7D1AB895B0609
:10290C003FF532AF099831E703AB00932A463046C6
:10291C00064B04A900F020F9EEE700BF2C300008AC
:10292C003230000836300008000000008D26000808
:10293C0070B50F4C0E462168054611B900F08AFAA5
:10294C0020603146284600F085FA431C03D14FF035
:10295C00FF34204670BDC41C24F00304A042F8D000
:10296C00211A284600F076FA0130F2D1EFE700BFC9
:10297C00FC0200202DE9F843CD1C25F00305083599
:10298C000C2D38BF0C25002D064601DBA94204D9BD
:10299C000C2333600020BDE8F883334F00F006FAB7
:1029AC003B681C463CBB29463046FFF7C1FF431C25
:1029BC00044656D13C68A046B8F1000F40D1002C1B
:1029CC0049D023684146304604EB030900F042FA33
:1029DC00814540D1216830466D1A2946FFF7A8FF82
:1029EC00013038D023682B4423603B685A685ABBAB
:1029FC00C7F800800EE02268521B1ED40B2A16D991
:102A0C006119A342256018BF5960636808BF39601B
:102A1C0062514B60304600F0CFF904F10B00231DDE
:102A2C0020F00700C21A1CBF1B1AA350B3E7626840
:102A3C00A3420CBF3A605A60ECE723466468B1E7E6
:102A4C004446D8F80480B7E71A465B68A342FBD12A
:102A5C0000235360DEE70C233046336000F0ACF902
:102A6C0098E70560D6E700BF000300202DE9F0478A
:102A7C00914698468A680B6907469342B8BF13463D
:102A8C00C9F8003091F843200C46089E12B101336E
:102A9C00C9F800302368990642BFD9F800300233D8
:102AAC00C9F80030256815F0060507D104F1190A9C
:102ABC00E368D9F800209B1AAB4229DC94F8433028
:102ACC002268003B18BF012392062ED4414638469B
:102ADC0004F14302B047013021D02368A16803F010
:102AEC000603042B12BF0025E568D9F800302269D3
:102AFC0004BFED1A25EAE5758B1A2B449142C8BF29
:102B0C001D464FF000091A344D451AD1002008E03B
:102B1C000123524641463846B047013003D14FF0AD
:102B2C00FF30BDE8F0870135C2E73020E11881F8AD
:102B3C0043005A1C94F845102244023382F8431087
:102B4C00C4E70123224641463846B0470130E6D05F
:102B5C0009F10109D8E700002DE9F04398460B7EF6
:102B6C0085B0782B174606460C460C9A09D8622B72
:102B7C0001F1430108D8002B00F0DC80582B00F049
:102B8C00BD8004F1420539E0A3F163001528F8D8A3
:102B9C0001A555F820F000BFFD2B0008112C0008F2
:102BAC008F2B00088F2B00088F2B00088F2B000811
:102BBC00112C00088F2B00088F2B00088F2B00087E
:102BCC008F2B0008212D00083D2C0008CF2C00086D
:102BDC008F2B00088F2B0008492D00088F2B000825
:102BEC003D2C00088F2B00088F2B0008D72C0008D9
:102BFC00136804F14205191D1B68116084F84230FA
:102C0C000123A8E013682568181D1060280601D55B
:102C1C001B6803E06A06FBD5B3F90030002B03DA1E
:102C2C002D225B4284F843200A22DFF878C113E09E
:102C3C002568106815F0800F50F8043B02D16D0622
:102C4C0048BF9BB21060227EDFF858C16F2A5DD15D
:102C5C000822002084F843006568002DA56005DB80
:102C6C0020681D4320F00400206051D00D46B3FBBA
:102C7C00F2F002FB103E1CF80EE09A4205F801ED52
:102C8C000346F4D9082A0BD12368DA0708D523693F
:102C9C0062689A42DEBF302305F8013C05F1FF352E
:102CAC00491B21613B4621463046CDF8008003AAE2
:102CBC00FFF7DCFE013053D14FF0FF3005B0BDE81B
:102CCC00F083236843F0200323607823DFF8D8C017
:102CDC0084F845302068156810F0800F55F8043BD7
:102CEC0003D110F0400F18BF9BB21560C50744BF4D
:102CFC0040F02000206023B11022AAE7DFF8A4C026
:102D0C00E6E7226822F020022260F5E70A22A0E71B
:102D1C000D46B7E71368D4F800C01D1D60691CF0A0
:102D2C00800F15601B6801D0186003E01CF0400F89
:102D3C00FAD0188000230D462361B3E71368191DE0
:102D4C0011601D6800212846626800F093F808B1F4
:102D5C00401B606063682361002384F84330A1E763
:102D6C002A46394630462369C0470130A4D023682F
:102D7C009B0714D4E068039B9842B8BF18469DE7A4
:102D8C0001233946304604F11902C047013093D073
:102D9C000135E36803995B1AAB42F1DCEAE70025E5
:102DAC00F7E700BF3D3000084E3000080148FFF740
:102DBC0065BC00BFF80200200148FFF760BC00BFF3
:102DCC00F80200202DE9F041074615460C4621B9C2
:102DDC001146BDE8F041FFF7CDBD2AB900F066F809
:102DEC002C462046BDE8F08100F0AAF88542064644
:102DFC0002D8B5EB500FF4D829463846FFF7BAFD88
:102E0C00804608B94446ECE7B5422A46214628BF1D
:102E1C00324600F03DF82146384600F047F8F1E71D
:102E2C00884210B501EB020402D98442234607D82C
:102E3C00431EA14207D011F8012B03F8012FF8E72C
:102E4C000244824200D110BD13F8011D02F8011D8D
:102E5C00F7E7000038B50023054C0546084623600B
:102E6C00FFF7CEF9431C02D1236803B12B6038BDA8
:102E7C0004030020034610B5C9B20244934201D1A9
:102E8C00002004E01846047801338C42F6D110BDC2
:102E9C000A44914200F1FF3300D1704710B511F88C
:102EAC00014B914203F8014FF9D110BD37B5002900
:102EBC0042D051F8043C0C1F002BB8BFE418019011
:102ECC00FFF774FF1D4A0198136833B963601460EF
:102EDC0003B0BDE83040FFF76FBFA34208D92568A7
:102EEC0061198B4201BF19685B6849192160EDE7D4
:102EFC001A465B680BB1A342FAD911685518A54262
:102F0C000BD1246821445418A3421160E0D11C68F1
:102F1C005B680C4414605360DAE702D90C2303603D
:102F2C00D6E7256861198B4201BF19685B6849199E
:102F3C00216063605460CBE703B030BD0003002018
:102F4C0051F8043C181F002BBCBF0B58C01870471D
:102F5C00F8B500BFF8BC08BC9E467047F8B500BF7A
:082F6C00F8BC08BC9E4670474A
:102F74000000000001020304000000000000000043
:102F840001020304060708090102020304050607F7
:102F940008090A0B0C0D0E0F1010010202030405A0
:102FA400060708090A0B0C0D0E0F1010666F7277D6
:102FB400617264007265766572736500756E6B6E1E
:102FC4006F776E00743D256C752072756E3D2575A6
:102FD400207265713D2573206F75743D25732070D3
:102FE400686173653D2573206164633D25752074B4
:102FF40061726765743D25752070776D3D25750D8B
:103004000A0073746F707065640072756E6E696E19
:10301400670072616D705F646F776E006368616EE4
:1030240067655F7761697400232D302B2000686C1D
:103034004C006566674546470030313233343536D7
:103044003738394142434445460030313233343510
:1030540036373839616263646566000006300008FB
:0C3064000E300008163000082030000874
:04307000350100081E
:043074000D01000842
:1030780000127A000100000010000000000C01405E
:10308800001001010000000000000000000C0140D9
:1030980000200101000000000000000030000020B6
:1030A80000000000C001002028020020900200203B
:1030B8000000000000000000000000000000000008
:1030C80000000000000000000000000000000000F8
:1030D80000000000000000000000000000000000E8
:0C30E800000000000000000000000000DC
:040000050800224984
:00000001FF
